:020000040800F2
:10000000280A00202101000821060008C504000874
:10001000FD0400088D0100087311000800000000B5
:10002000000000000000000000000000030D0008B8
:10003000C5010008000000001B0B0008E10E0008CD
:100040003B0100083B0100083B0100083B010008A0
:100050003B0100083B0100083B0100083B01000890
:100060003B0100083B0100083B0100083B01000880
:100070003B0100083B0100083B0100083B01000870
:100080003B0100083B0100083B0100083B01000860
:100090003B0100083B0100083B0100083B01000850
:1000A0003B0100083B0100083B0100083B01000840
:1000B0003B0100083B0100083B0100083B01000830
:1000C0003B0100083B0100083B0100083B01000820
:1000D0003B010008450F00083B0100083B010008F8
:1000E0000D0200083B0100083B010008DFF80CD0BE
:1000F00000F03AF80048004719130008280A0020C9
:10010000EFF30980704780F309887047EFF30880A8
:10011000704780F30888704740BA7047C0BA70478C
:100120000648804706480047FEE7FEE7FEE7FEE791
:10013000FEE7FEE7FEE7FEE7FEE7FEE7E50E000866
:10014000ED00000840EA01039B0703D009E008C95D
:10015000121F08C0042AFAD203E011F8013B00F88C
:10016000013B521EF9D27047064C074D06E0E0688D
:1001700040F0010394E8070098471034AC42F6D3EE
:10018000FFF7B8FFA4130008C413000800BFFEE780
:1001900030B50B4600210FE05D5C6840002408E0AC
:1001A00000F001051DB1064D85EA500000E0400851
:1001B000641C082CF4D3491C9142EDD330BD0000DF
:1001C0002083B8ED704700B5034603E04FF47A7022
:1001D00000F005F81800A3F10103F7D100BD00EB12
:1001E000C001C9004FF0E022516100219161052159
:1001F000116100BF4FF0E021096901F4803100294D
:10020000F8D004214FF0E0221161704710B54FF48F
:10021000804000F01FF8012810D18103084800F049
:1002200041F938B907480088401C064908801E205B
:10023000FFF7C9FF4FF4804000F006F810BD000042
:10024000000C0140140000200149086070470000C4
:1002500014040140014600200022074B1B6803EAFA
:100260000102054B14331B680B4013B10AB1012086
:1002700000E00020704700000004014030B5044653
:1002800004254FF4302000F06FF80546042D17D1F7
:100290000C48006940F002000A49086108464461C0
:1002A000006940F0400008614FF4302000F05CF835
:1002B00005460448006941F6FD710840014908619E
:1002C000284630BD0020024004200B49C96801F0D7
:1002D000010109B101200EE00749C96801F00401DC
:1002E00009B1022007E00449C96801F0100109B111
:1002F000032000E00420704700200240034800690A
:1003000040F0800001490861704700000020024071
:1003100070B504460D460426F00200F025F80646A6
:10032000042E11D10948006940F001000749086115
:100330002580F00200F018F806460448006941F6EE
:10034000FE71084001490861304670BD002002403E
:1003500002480349486003484860704723016745E5
:1003600000200240AB89EFCD00B502460423FFF721
:10037000ABFF034603E0FFF7A7FF0346521E012B26
:1003800001D1002AF7D102B90523184600BD2DE995
:10039000F04102460025002600200023002400270B
:1003A00091F803C00CF00F0591F803C00CF0100C8D
:1003B000BCF1000F03D091F802C04CEA050591F89A
:1003C00000C0BCF1000F31D0146800202BE04FF0CA
:1003D000010C0CFA00F3B1F800C00CEA03069E42CF
:1003E00020D183004FF00F0C0CFA03F7BC4305FA41
:1003F00003FC4CEA040491F803C0BCF1280F06D1B9
:100400004FF0010C0CFA00FCC2F814C00AE091F89D
:1004100003C0BCF1480F05D14FF0010C0CFA00FCF1
:10042000C2F810C0401C0828D1D31460B1F800C035
:10043000BCF1FF0F34DD546800202EE000F1080C01
:100440004FF0010808FA0CF3B1F800C00CEA0306FB
:100450009E4221D183004FF00F0C0CFA03F7BC43EE
:1004600005FA03FC4CEA040491F803C0BCF1280F20
:1004700005D100F1080C08FA0CF8C2F8148091F8C4
:1004800003C0BCF1480F07D100F1080C4FF0010880
:1004900008FA0CF8C2F81080401C0828CED354602B
:1004A000BDE8F0810246002093680B400BB10120AB
:1004B00000E000207047016170470AB1016100E06F
:1004C0004161704700BFFEE708B50121042000F03C
:1004D00035FB10208DF803000001ADF8000003206B
:1004E0008DF8020069460448FFF751FF4FF4807110
:1004F0000148FFF7E0FF08BD0008014000BFFEE72C
:1005000000B587B00121082000F018FB0121880305
:1005100000F004FB10208DF81B000002ADF818005D
:1005200003208DF81A0006A92248FFF730FF182093
:100530008DF81B004FF42040ADF8180006A91D48A7
:10054000FFF725FF48208DF81B004FF48040ADF8E1
:10055000180006A91748FFF71AFF4FF48270ADF88C
:1005600006000020ADF80400ADF80800ADF8120058
:100570003020ADF810000020ADF80A00ADF80C00F6
:100580004FF40070ADF80E000720ADF8140001A97B
:10059000094800F089FB4FF48071074800F0A2FB86
:1005A0000121054800F066FB012000F02DF807B09E
:1005B00000BD0000000C01400038004010B50020D4
:1005C00000F022F810BD10B5012000F01DF810BD9C
:1005D00010B5044600BF02210A4800F057FB01286D
:1005E000F9D12146074800F05DFB00BF0121054815
:1005F00000F04CFB0128F9D1024800F050FBC0B2DA
:1006000010BD00000038004010B5044622464FF4EB
:1006100080510248FFF751FF10BD0000000C01405F
:100620007047000070B5002100230F22C47804B386
:10063000154C246804F4E064C4F5E064210AC1F1B7
:100640000403CA40447804FA03F184781440214337
:1006500009010E4C0678A155047804F01F05012409
:10066000AC4005786D11AD0005F1E025C5F80041FD
:1006700009E0047804F01F050124AC40044D06781D
:10068000761145F8264070BD0CED00E000E400E076
:1006900080E100E002490143024A11607047000016
:1006A0000000FA050CED00E010B588B001A800F0DC
:1006B00073F944490198884203D14349029888421A
:1006C0001AD042480468601C28B1B4F1005F02D31C
:1006D0003F48844206D93FA000F019FA00F0CEF955
:1006E00000BFFEE740A000F012FA00F0C7F937485B
:1006F00000F0A6F908B010BD44A000F008FA039875
:1007000000F0E0F947A000F002FA0599080C00F0AB
:10071000D9F946A000F0FBF9059988B200F0D2F9AA
:1007200000F0ACF942A000F0F2F900F0A7F9DDE921
:10073000030100F04FFD50B945A000F0E8F900F0CA
:100740009DF900F0EFF8214800F07AF9D2E74BA0CC
:1007500000F0DDF900F092F91C48039900F000F96F
:10076000039800F0A7FD4FA000F0D1F900F086F942
:10077000DDE9030100F000FD50B151A000F0C7F920
:1007800000F07CF900F0CEF8104800F059F9B1E71C
:1007900055A000F0BCF900F071F9069858B10B486B
:1007A000069900F0DDF8069800F042FA58A000F033
:1007B000AEF900F063F900F0B5F8044800F040F934
:1007C00000BF97E74141544FAA55AA55004400087D
:1007D000005000205B424C5D204E6F2076616C69BA
:1007E00064206170702100005B424C5D204E6F20E0
:1007F0004F54412070656E64696E672C20626F6F84
:1008000074206E6F726D616C6C792E005B424C5D72
:10081000204F54412070656E64696E672C207369A7
:100820007A653D00207665723D0000002E000000D4
:100830005B424C5D2056657269667920646F776E05
:100840006C6F616420617265612E2E2E00000000C5
:100850005B424C5D20446F776E6C6F616420435245
:1008600043206D69736D617463682C20626F6F74CF
:10087000206F6C64206170702E0000005B424C5D44
:1008800020457261736520415050202620666C61BE
:100890007368206E6577206669726D776172652E68
:1008A0002E2E00005B424C5D2056657269667920F1
:1008B00041505020726567696F6E2E2E2E00000029
:1008C0005B424C5D2055706772616465207375638F
:1008D000636573732C206A756D7020746F206E656C
:1008E00077204150502E00005B424C5D204150501B
:1008F00020766572696679206661696C2C20726564
:1009000073746F7265206261636B75702E2E2E009A
:100910005B424C5D20526573746F726520646F6E2C
:10092000652E000000B587B0684600F035F80A492A
:100930000098884208D0FFF70BFD0848FFF79EFC9F
:10094000FFF7DCFC07B000BD00200190684600F016
:1009500035F800BFF6E700004141544F00FC0008A5
:100960002DE9F04104460E46A70ABF02A01900F285
:10097000FF304FEA90284FEA8828FFF7E9FC3D4610
:1009800004E02846FFF77AFC05F580654545F8D375
:10099000FFF7B4FCBDE8F08130B50146064A0B46CE
:1009A0000724002004E052F8205043F82050401C57
:1009B000A042F8D330BD000000FC00082DE9F04152
:1009C00005462E460E27FFF7C3FC0948FFF756FCE5
:1009D000002407E036F81410054A02EB4400FFF744
:1009E00097FC641CBC42F5D3FFF788FCBDE8F0819E
:1009F00000FC00082DE9F04107460E461446FFF7BB
:100A0000A7FC002509E0715D681C305C41EA002804
:100A100078194146FFF77CFCAD1C681CA042F2D35C
:100A200004F0010040B1601E305C40F47F48391989
:100A3000481E4146FFF76CFCFFF760FCBDE8F08103
:100A4000044625686668374600BF4021094800F023
:100A5000BEFA0028F9D000204FF0E021086148617B
:100A60008861054804602846FFF753FBB84700BF7C
:100A7000FEE700000038014008ED00E010B50D2051
:100A800000F09CF90A2000F099F910BD10B5044659
:100A9000201200F005F8E0B200F002F810BD0000EE
:100AA00010B50446064901EB1411087800F086F9E8
:100AB00004F00F01024A505C00F080F910BD000004
:100AC000901300083EB5044600251CB9302000F004
:100AD00075F93EBD0DE00A20B4FBF0F100FB1140BA
:100AE000303029466A1CD5B20DF801000A20B4FB4B
:100AF000F0F4002CEFD106E0691EC9B20D461DF8D6
:100B0000010000F05BF9002DF6D100BFE1E710B560
:100B10000446204600F062F910BD704729B1064A2C
:100B2000D2690243044BDA6104E0034AD26982438A
:100B3000014BDA61704700000010024029B1064AFB
:100B400092690243044B9A6104E0034A926982432A
:100B5000014B9A61704700000010024030B500213F
:100B60000022002400232D4D6D6805F00C0121B1F9
:100B7000042905D0082923D105E0294D056022E08C
:100B8000274D05601FE0254D6D6805F47012234D5B
:100B90006D6805F48034022505EB92421CB9214DA5
:100BA000554305600BE01D4D6D6805F400351DB122
:100BB0001C4D5543056002E0194D5543056002E0A8
:100BC000174D056000BF00BF144D6D6805F0F001C2
:100BD0000909154D6B5C0568DD4045600F4D6D687A
:100BE00005F4E061090A104D6B5C4568DD408560E5
:100BF0000A4D6D6805F46051C90A0B4D6B5C456880
:100C0000DD40C560054D6D6805F44041890B074D19
:100C10006B5CC568B5FBF3F5056130BD00100240A3
:100C200000127A0000093D000000002010000020A2
:100C300070B50546002416E0281BB0F5807F02D968
:100C40004FF4807000E0281B064604F50020324671
:100C5000064900F0EDFA0649601832460349FFF7ED
:100C6000C9FE04F58074AC42E6D370BD28000020B4
:100C70000044000821B1028842F04002028004E0F2
:100C800002884FF6BF731A40028070470246002068
:100C900013890B400BB1012000E000207047014692
:100CA000888970478181704710B50022028802F45C
:100CB00041520B884C8823438C882343CC882343A0
:100CC0000C8923434C8923438C892343CC892343B8
:100CD0001A430280838B4FF2FF74234083830B8A75
:100CE000038210BD4FF6FF62914204D0028842F4A5
:100CF0008072028004E002884FF6FF631A4002808F
:100D00007047704700B587B001210420FFF716FF38
:100D100001218803FFF712FF48208DF81B004FF4D4
:100D20008060ADF8180003208DF81A0006A921484C
:100D3000FFF72DFB18208DF81B004FF40070ADF865
:100D4000180003208DF81A0006A91A48FFF71FFBA8
:100D50004FF4E13002900020ADF814000C20ADF803
:100D600012000020ADF81000ADF80E00ADF80C0038
:100D700002A9114800F088F9012240F225510E48DD
:100D800000F05CF94FF4A060FFF784FC25208DF89B
:100D9000040001208DF807008DF805008DF806008D
:100DA00001A8FFF73FFC0121034800F004F907B058
:100DB00000BD0000000801400038014010B50446A5
:100DC0002146054800F0D1F900BF8021024800F01B
:100DD000FEF80028F9D010BD0038014070B5044677
:100DE000002504E0605DFFF7E9FF681CC5B2605DA7
:100DF0000028F7D170BD10B500F002F810BD00005A
:100E00000CB50020019000903348006840F4803019
:100E10003149086000BF3048006800F4003000909D
:100E20000198401C0190009818B90198B0F5A06F86
:100E3000F1D12948006800F4003010B10120009081
:100E400001E0002000900098012843D12348006869
:100E500040F01000214908600846006820F00300B7
:100E600008600846006840F0020008601A484068C0
:100E7000194948600846406848600846406840F4A0
:100E8000806048600846406820F47C10486008464E
:100E9000406840F4E81048600846006840F0807000
:100EA000086000BF0C48006800F000700028F9D00E
:100EB0000948406820F00300074948600846406838
:100EC00040F00200486000BF0348406800F00C009A
:100ED0000828F9D10CBD000000100240002002409B
:100EE0007047000010B51348006840F00100114938
:100EF000086008464068104908400E4948600846A6
:100F000000680E4908400B4908600846006820F454
:100F1000802008600846406820F4FE0048604FF4D6
:100F20001F008860FFF767FF4FF00060044908600A
:100F300010BD0000001002400000FFF8FFFFF6FEA9
:100F400008ED00E070B540F225510F4800F04CF874
:100F5000012818D10C4800F003F9C5B20B480088ED
:100F6000401CC0F309040A480088844205D009489F
:100F70000649098845540548048040F22551024835
:100F800000F00AF800BF70BD0038014016000020D4
:100F9000180000202801002010B50022002340F690
:100FA0006A14A14200D100BF0A1201249440A3B2E6
:100FB000DC43048010BD21B1828942F40052828159
:100FC00004E082894DF6FF731A4082817047024621
:100FD0000020B1F5007F00D100BF13880B400BB19A
:100FE000012000E00020704770B502460024002375
:100FF0000025002040F66A16B14200D100BFC1F3BF
:10100000421501F01F03012606FA03F3012D02D158
:101010009689334006E0022D02D1168A334001E062
:10102000968A33400C12012606FA04F416883440DE
:1010300013B10CB1012000E0002070BDF0B50346F3
:10104000002400260025002040F66A17B94200D18E
:1010500000BF1846C1F3421401F01F06012707FA2A
:1010600006F5012C01D10C3004E0022C01D1103026
:1010700000E014301AB107682F43076002E00768E8
:10108000AF430760F0BD00002DE9F04786B005468C
:101090000E460024A24600BFA1460027B08900B139
:1010A00000BF2F462C8A4CF6FF700440F0880443A2
:1010B0002C82AC894EF6F3100440B0883189084385
:1010C000718908430443AC81AC8A4FF6FF40044069
:1010D000B0890443AC8201A8FFF740FD1F48874256
:1010E00002D1DDF810A001E0DDF80CA0A88900F421
:1010F000004040B10AEBCA0000EB0A103168490019
:10110000B0FBF1F807E00AEBCA0000EB0A10316807
:101110008900B0FBF1F86420B8FBF0F0040120096D
:10112000642101FB1089A88900F4004040B13220FD
:1011300000EBC900B0FBF1F000F00700044308E049
:10114000322000EB09106421B0FBF1F000F00F0039
:1011500004432C8106B0BDE8F08700000038014050
:1011600001468888C0F308007047C1F308028280F6
:10117000704700BFFEE700002DE9F04105460F462D
:101180004FF0FF36002416E0281BB0F5807F02D90F
:101190004FF4807000E0281B80460C48211842461E
:1011A0000B48FEF7CFFF424609493046FEF7F0FFF5
:1011B000064604F58074AC42E6D3F643BE4202D143
:1011C0000120BDE8F0810020FBE70000004400089A
:1011D000280000202DE9F04105460F464FF0FF366C
:1011E000002415E0281BB0F5807F02D94FF48070F1
:1011F00000E0281B8046204642460A4900F018F8C5
:10120000424608493046FEF7C3FF064604F580749F
:10121000AC42E7D3F643BE4202D10120BDE8F081E3
:101220000020FBE72800002010B5FFF769F910BD8A
:101230002DE9F04104460E461746FFF7BFF903209B
:10124000FFF7C6F9C4F30740FFF7C2F9C4F307205C
:10125000FFF7BEF9E0B2FFF7BBF9002504E0FF207D
:10126000FFF7B6F970556D1CBD42F8D3FFF7ABF927
:10127000BDE8F08170B505460C46FFF79FF99F2049
:10128000FFF7A6F9FF20FFF7A3F92870FF20FFF76B
:101290009FF9208020884FF6FF7101EA002020800E
:1012A000FF20FFF795F9218808432080FFF78BF98D
:1012B00070BD000070B50546002415E0281BB0F590
:1012C000807F02D94FF4807000E0281B064620463C
:1012D00032460749FFF7ACFF064960183246044919
:1012E000FFF788FB04F58074AC42E7D370BD0000C3
:1012F000280000200044000802E008C8121F08C1AE
:10130000002AFAD170477047002001E001C1121F86
:10131000002AFBD1704700001CB5FFF7D5F8FFF796
:10132000F1FCFFF781FF0DA0FFF7F1FBFFF7A6FB34
:10133000694601A8FFF79EFF10A0FFF7E8FB9DF8A4
:101340000400FFF7ADFBBDF80000FFF79FFBFFF7C0
:1013500095FBFFF7A9F900BFFEE700005B424C5D7B
:1013600020426F6F746C6F616465722076312E302D
:101370002073746172746564000000005B424C5D10
:10138000205732355136342049443A203078000015
:1013900030313233343536373839414243444546AB
:1013A00000000000C4130008000000202800000016
:1013B000F8120008EC13000828000020000A0000C2
:1013C00008130008000000000102030401020304E6
:1013D00006070809020406080000000000000000DB
:0C13E00000000000000000000000000001
:04000005080000ED02
:00000001FF
